{
  "abi": [
    {
      "inputs": [],
      "stateMutability": "nonpayable",
      "type": "constructor"
    },
    {
      "anonymous": false,
      "inputs": [
        {
          "indexed": true,
          "internalType": "address",
          "name": "owner",
          "type": "address"
        },
        {
          "indexed": true,
          "internalType": "address",
          "name": "spender",
          "type": "address"
        },
        {
          "indexed": false,
          "internalType": "uint256",
          "name": "value",
          "type": "uint256"
        }
      ],
      "name": "Approval",
      "type": "event"
    },
    {
      "anonymous": false,
      "inputs": [
        {
          "indexed": true,
          "internalType": "address",
          "name": "owner",
          "type": "address"
        },
        {
          "indexed": true,
          "internalType": "address",
          "name": "spender",
          "type": "address"
        },
        {
          "indexed": false,
          "internalType": "uint256",
          "name": "value",
          "type": "uint256"
        }
      ],
      "name": "HoldApproval",
      "type": "event"
    },
    {
      "anonymous": false,
      "inputs": [
        {
          "indexed": false,
          "internalType": "string",
          "name": "holdId",
          "type": "string"
        },
        {
          "indexed": true,
          "internalType": "address",
          "name": "from",
          "type": "address"
        },
        {
          "indexed": true,
          "internalType": "address",
          "name": "to",
          "type": "address"
        },
        {
          "indexed": false,
          "internalType": "uint256",
          "name": "value",
          "type": "uint256"
        }
      ],
      "name": "HoldCreated",
      "type": "event"
    },
    {
      "anonymous": false,
      "inputs": [
        {
          "indexed": false,
          "internalType": "string",
          "name": "holdId",
          "type": "string"
        },
        {
          "indexed": true,
          "internalType": "address",
          "name": "from",
          "type": "address"
        },
        {
          "indexed": true,
          "internalType": "address",
          "name": "to",
          "type": "address"
        },
        {
          "indexed": false,
          "internalType": "uint256",
          "name": "value",
          "type": "uint256"
        }
      ],
      "name": "HoldExecuted",
      "type": "event"
    },
    {
      "anonymous": false,
      "inputs": [
        {
          "indexed": false,
          "internalType": "string",
          "name": "holdId",
          "type": "string"
        },
        {
          "indexed": true,
          "internalType": "address",
          "name": "from",
          "type": "address"
        },
        {
          "indexed": true,
          "internalType": "address",
          "name": "to",
          "type": "address"
        },
        {
          "indexed": false,
          "internalType": "uint256",
          "name": "value",
          "type": "uint256"
        }
      ],
      "name": "HoldRemoved",
      "type": "event"
    },
    {
      "anonymous": false,
      "inputs": [
        {
          "indexed": true,
          "internalType": "address",
          "name": "from",
          "type": "address"
        },
        {
          "indexed": true,
          "internalType": "address",
          "name": "to",
          "type": "address"
        },
        {
          "indexed": false,
          "internalType": "uint256",
          "name": "value",
          "type": "uint256"
        }
      ],
      "name": "Transfer",
      "type": "event"
    },
    {
      "inputs": [
        {
          "internalType": "address",
          "name": "owner",
          "type": "address"
        },
        {
          "internalType": "address",
          "name": "spender",
          "type": "address"
        }
      ],
      "name": "allowance",
      "outputs": [
        {
          "internalType": "uint256",
          "name": "",
          "type": "uint256"
        }
      ],
      "stateMutability": "view",
      "type": "function"
    },
    {
      "inputs": [
        {
          "internalType": "address",
          "name": "spender",
          "type": "address"
        },
        {
          "internalType": "uint256",
          "name": "amount",
          "type": "uint256"
        }
      ],
      "name": "approve",
      "outputs": [
        {
          "internalType": "bool",
          "name": "",
          "type": "bool"
        }
      ],
      "stateMutability": "nonpayable",
      "type": "function"
    },
    {
      "inputs": [
        {
          "internalType": "address",
          "name": "account",
          "type": "address"
        }
      ],
      "name": "balanceOf",
      "outputs": [
        {
          "internalType": "uint256",
          "name": "",
          "type": "uint256"
        }
      ],
      "stateMutability": "view",
      "type": "function"
    },
    {
      "inputs": [
        {
          "internalType": "address",
          "name": "account",
          "type": "address"
        }
      ],
      "name": "balanceOnHold",
      "outputs": [
        {
          "internalType": "uint256",
          "name": "",
          "type": "uint256"
        }
      ],
      "stateMutability": "view",
      "type": "function"
    },
    {
      "inputs": [
        {
          "internalType": "string",
          "name": "holdId",
          "type": "string"
        }
      ],
      "name": "executeHold",
      "outputs": [
        {
          "internalType": "bool",
          "name": "",
          "type": "bool"
        }
      ],
      "stateMutability": "nonpayable",
      "type": "function"
    },
    {
      "inputs": [
        {
          "internalType": "address",
          "name": "to",
          "type": "address"
        },
        {
          "internalType": "uint256",
          "name": "amount",
          "type": "uint256"
        },
        {
          "internalType": "string",
          "name": "holdId",
          "type": "string"
        }
      ],
      "name": "hold",
      "outputs": [
        {
          "internalType": "bool",
          "name": "",
          "type": "bool"
        }
      ],
      "stateMutability": "nonpayable",
      "type": "function"
    },
    {
      "inputs": [
        {
          "internalType": "address",
          "name": "owner",
          "type": "address"
        },
        {
          "internalType": "address",
          "name": "spender",
          "type": "address"
        }
      ],
      "name": "holdAllowance",
      "outputs": [
        {
          "internalType": "uint256",
          "name": "",
          "type": "uint256"
        }
      ],
      "stateMutability": "view",
      "type": "function"
    },
    {
      "inputs": [
        {
          "internalType": "address",
          "name": "spender",
          "type": "address"
        },
        {
          "internalType": "uint256",
          "name": "amount",
          "type": "uint256"
        }
      ],
      "name": "holdApprove",
      "outputs": [
        {
          "internalType": "bool",
          "name": "",
          "type": "bool"
        }
      ],
      "stateMutability": "nonpayable",
      "type": "function"
    },
    {
      "inputs": [
        {
          "internalType": "address",
          "name": "from",
          "type": "address"
        },
        {
          "internalType": "address",
          "name": "to",
          "type": "address"
        },
        {
          "internalType": "uint256",
          "name": "amount",
          "type": "uint256"
        },
        {
          "internalType": "string",
          "name": "holdId",
          "type": "string"
        }
      ],
      "name": "holdFrom",
      "outputs": [
        {
          "internalType": "bool",
          "name": "",
          "type": "bool"
        }
      ],
      "stateMutability": "nonpayable",
      "type": "function"
    },
    {
      "inputs": [
        {
          "internalType": "address",
          "name": "account",
          "type": "address"
        }
      ],
      "name": "netBalanceOf",
      "outputs": [
        {
          "internalType": "uint256",
          "name": "",
          "type": "uint256"
        }
      ],
      "stateMutability": "view",
      "type": "function"
    },
    {
      "inputs": [
        {
          "internalType": "string",
          "name": "holdId",
          "type": "string"
        }
      ],
      "name": "removeHold",
      "outputs": [
        {
          "internalType": "bool",
          "name": "",
          "type": "bool"
        }
      ],
      "stateMutability": "nonpayable",
      "type": "function"
    },
    {
      "inputs": [],
      "name": "totalSupply",
      "outputs": [
        {
          "internalType": "uint256",
          "name": "",
          "type": "uint256"
        }
      ],
      "stateMutability": "view",
      "type": "function"
    },
    {
      "inputs": [],
      "name": "totalSupplyOnHold",
      "outputs": [
        {
          "internalType": "uint256",
          "name": "",
          "type": "uint256"
        }
      ],
      "stateMutability": "view",
      "type": "function"
    },
    {
      "inputs": [
        {
          "internalType": "address",
          "name": "recipient",
          "type": "address"
        },
        {
          "internalType": "uint256",
          "name": "amount",
          "type": "uint256"
        }
      ],
      "name": "transfer",
      "outputs": [
        {
          "internalType": "bool",
          "name": "",
          "type": "bool"
        }
      ],
      "stateMutability": "nonpayable",
      "type": "function"
    },
    {
      "inputs": [
        {
          "internalType": "address",
          "name": "sender",
          "type": "address"
        },
        {
          "internalType": "address",
          "name": "recipient",
          "type": "address"
        },
        {
          "internalType": "uint256",
          "name": "amount",
          "type": "uint256"
        }
      ],
      "name": "transferFrom",
      "outputs": [
        {
          "internalType": "bool",
          "name": "",
          "type": "bool"
        }
      ],
      "stateMutability": "nonpayable",
      "type": "function"
    }
  ],
  "bytecode": "608060405234801561001057600080fd5b50662386f26fc100006007819055600080546001600160a01b0319163390811782558152600160205260409020556111f08061004d6000396000f3fe608060405234801561001057600080fd5b50600436106100f55760003560e01c806352ecd4d111610097578063c5a468c611610066578063c5a468c6146101ee578063dac42e4114610217578063dd62ed3e14610250578063ddeeebd41461028957600080fd5b806352ecd4d1146101a257806370a08231146101b5578063a79cf185146101c8578063a9059cbb146101db57600080fd5b8063106a2155116100d3578063106a21551461016c57806318160ddd1461017f57806323b872dd1461018757806351bfb9611461019a57600080fd5b80630956e924146100fa578063095ea7b3146101225780630b986a5014610135575b600080fd5b61010d610108366004610e9d565b61029c565b60405190151581526020015b60405180910390f35b61010d610130366004610f05565b6103b6565b61015e610143366004610f2f565b6001600160a01b031660009081526001602052604090205490565b604051908152602001610119565b61010d61017a366004610f4a565b6103ca565b60075461015e565b61010d610195366004610fa1565b610406565b60065461015e565b61010d6101b0366004610f05565b6104eb565b61015e6101c3366004610f2f565b6104f8565b61010d6101d6366004610fdd565b61052c565b61010d6101e9366004610f05565b610537565b61015e6101fc366004610f2f565b6001600160a01b031660009081526005602052604090205490565b61015e610225366004611012565b6001600160a01b03918216600090815260036020908152604080832093909416825291909152205490565b61015e61025e366004611012565b6001600160a01b03918216600090815260026020908152604080832093909416825291909152205490565b61010d610297366004610fdd565b610557565b60006001600160a01b0384166102cd5760405162461bcd60e51b81526004016102c490611045565b60405180910390fd5b6001600160a01b0385166103325760405162461bcd60e51b815260206004820152602660248201527f50617965722061646472657373206d757374206e6f74206265207a65726f206160448201526564647265737360d01b60648201526084016102c4565b6001600160a01b038516600090815260036020908152604080832033845290915290205483111561036257600080fd5b61036e8286868661057d565b506001600160a01b0385166000908152600360209081526040808320338085529252909120546103aa9187916103a59087906110a1565b6107da565b50600195945050505050565b60006103c33384846108ef565b9392505050565b60006001600160a01b0384166103f25760405162461bcd60e51b81526004016102c490611045565b6103fe8233868661057d565b949350505050565b60006001600160a01b03841661041b57600080fd5b6001600160a01b03831661042e57600080fd5b6001600160a01b03841660009081526005602090815260408083205460019092529091205461045d91906110a1565b82111561046957600080fd5b6001600160a01b038416600090815260026020908152604080832033845290915290205482111561049957600080fd5b6104a4848484610a0d565b506001600160a01b0384166000908152600260209081526040808320338085529252909120546104e09186916104db9086906110a1565b6108ef565b506001949350505050565b60006103c33384846107da565b6001600160a01b038116600090815260056020908152604080832054600190925282205461052691906110a1565b92915050565b600061052682610aef565b60006001600160a01b03831661054c57600080fd5b6103c3338484610a0d565b600080546001600160a01b0316331461056f57600080fd5b61052682610ca7565b919050565b60008060048660405161059091906110e8565b9081526020016040518091039020905082600014156105f15760405162461bcd60e51b815260206004820152601f60248201527f56616c7565206d7573742062652067726561746572207468616e207a65726f0060448201526064016102c4565b6002810154156106435760405162461bcd60e51b815260206004820152601a60248201527f5468697320686f6c64496420616c72656164792065786973747300000000000060448201526064016102c4565b6001600160a01b03851660009081526005602090815260408083205460019092529091205461067291906110a1565b8311156106f25760405162461bcd60e51b815260206004820152604260248201527f416d6f756e74206f662074686520686f6c642063616e2774206265206772656160448201527f746572207468616e207468652062616c616e6365206f6620746865206f72696760648201526134b760f11b608482015260a4016102c4565b80546001600160a01b038681166001600160a01b0319928316811784556001808501805493891693909416929092179092556002830185905560038301805460ff1916909117905560009081526005602052604090205461075490849061111a565b6001600160a01b03861660009081526005602052604090205560065461077b90849061111a565b600681905550836001600160a01b0316856001600160a01b03167f1447baf11592332f1bb3fa66a7f7b71f69ac79b5c6aba135338046195aae48bb88866040516107c6929190611132565b60405180910390a350600195945050505050565b60006001600160a01b0384166108325760405162461bcd60e51b815260206004820152601d60248201527f417070726f76652066726f6d20746865207a65726f206164647265737300000060448201526064016102c4565b6001600160a01b0383166108885760405162461bcd60e51b815260206004820152601b60248201527f417070726f766520746f20746865207a65726f2061646472657373000000000060448201526064016102c4565b6001600160a01b0384811660008181526003602090815260408083209488168084529482529182902086905590518581527f2a4b7bd815ddb7c50a8f54eeb0cb4d5b463e07965d2464e99c948f971e2f311c91015b60405180910390a35060019392505050565b60006001600160a01b0384166109535760405162461bcd60e51b8152602060048201526024808201527f45524332303a20617070726f76652066726f6d20746865207a65726f206164646044820152637265737360e01b60648201526084016102c4565b6001600160a01b0383166109b45760405162461bcd60e51b815260206004820152602260248201527f45524332303a20617070726f766520746f20746865207a65726f206164647265604482015261737360f01b60648201526084016102c4565b6001600160a01b0384811660008181526002602090815260408083209488168084529482529182902086905590518581527f8c5be1e5ebec7d5bd14f71427d1e84f3dd0314c0f7b2291e5b200ac8c7c3b92591016108dd565b6001600160a01b0383166000908152600560209081526040808320546001909252822054610a3b91906110a1565b821115610a4757600080fd5b6001600160a01b038416600090815260016020526040902054610a6b9083906110a1565b6001600160a01b038086166000908152600160205260408082209390935590851681522054610a9b90839061111a565b6001600160a01b0380851660008181526001602052604090819020939093559151908616907fddf252ad1be2c89b69c2b068fc378daa952ba7f163c4a11628f55a4df523b3ef906108dd9086815260200190565b600080600483604051610b0291906110e8565b9081526040519081900360200190209050600160038083015460ff1690811115610b2e57610b2e611104565b14610b4b5760405162461bcd60e51b81526004016102c49061116d565b80546001600160a01b03163314610bbd5760405162461bcd60e51b815260206004820152603060248201527f4f6e6c792074686520686f6c642063726561746f722068617320616c6c6f772060448201526f195e1958dd5d19481d1a19481a1bdb1960821b60648201526084016102c4565b8060020154600654610bcf91906110a1565b600655600281015481546001600160a01b0316600090815260056020526040902054610bfb91906110a1565b81546001600160a01b03166000908152600560205260409020556003810180546002919060ff191660018302179055506001810154815460028301546040516001600160a01b0393841693909216917fbf421e49f7cee5241edc374d8a9fefed49977ec6c23509017c5baea963cff18b91610c7891889190611132565b60405180910390a360018101546002820154610c9d916001600160a01b031690610537565b5060019392505050565b600080546001600160a01b03163314610cbf57600080fd5b6000600483604051610cd191906110e8565b9081526040519081900360200190209050600160038083015460ff1690811115610cfd57610cfd611104565b14610d1a5760405162461bcd60e51b81526004016102c49061116d565b8060020154600654610d2c91906110a1565b600655600281015481546001600160a01b0316600090815260056020526040902054610d5891906110a1565b81546001600160a01b03166000908152600560205260409020556003808201805460ff191660018302179055506001810154815460028301546040516001600160a01b0393841693909216917f915518f9ccbea82173e8e65b955ae12c0d9619dfab08e23d17d2963ecad7f4e491610dd291889190611132565b60405180910390a350600192915050565b80356001600160a01b038116811461057857600080fd5b634e487b7160e01b600052604160045260246000fd5b600082601f830112610e2157600080fd5b813567ffffffffffffffff80821115610e3c57610e3c610dfa565b604051601f8301601f19908116603f01168101908282118183101715610e6457610e64610dfa565b81604052838152866020858801011115610e7d57600080fd5b836020870160208301376000602085830101528094505050505092915050565b60008060008060808587031215610eb357600080fd5b610ebc85610de3565b9350610eca60208601610de3565b925060408501359150606085013567ffffffffffffffff811115610eed57600080fd5b610ef987828801610e10565b91505092959194509250565b60008060408385031215610f1857600080fd5b610f2183610de3565b946020939093013593505050565b600060208284031215610f4157600080fd5b6103c382610de3565b600080600060608486031215610f5f57600080fd5b610f6884610de3565b925060208401359150604084013567ffffffffffffffff811115610f8b57600080fd5b610f9786828701610e10565b9150509250925092565b600080600060608486031215610fb657600080fd5b610fbf84610de3565b9250610fcd60208501610de3565b9150604084013590509250925092565b600060208284031215610fef57600080fd5b813567ffffffffffffffff81111561100657600080fd5b6103fe84828501610e10565b6000806040838503121561102557600080fd5b61102e83610de3565b915061103c60208401610de3565b90509250929050565b60208082526026908201527f50617965652061646472657373206d757374206e6f74206265207a65726f206160408201526564647265737360d01b606082015260800190565b634e487b7160e01b600052601160045260246000fd5b6000828210156110b3576110b361108b565b500390565b60005b838110156110d35781810151838201526020016110bb565b838111156110e2576000848401525b50505050565b600082516110fa8184602087016110b8565b9190910192915050565b634e487b7160e01b600052602160045260246000fd5b6000821982111561112d5761112d61108b565b500190565b60408152600083518060408401526111518160608501602088016110b8565b602083019390935250601f91909101601f191601606001919050565b6020808252602d908201527f4120686f6c642063616e206f6e6c7920626520657865637574656420696e207360408201526c1d185d1d5cc813dc99195c9959609a1b60608201526080019056fea26469706673582212202ffbec2ca67318e6918ee81e9f9785a61a5c3bf8b65dd313dc608ba476db9d3764736f6c634300080a0033",
  "bytecodeSha1": "340ac6e24557439bb482111988c26e4950df4732",
  "compiler": {
    "evm_version": "istanbul",
    "optimizer": {
      "enabled": true,
      "runs": 200
    },
    "version": "0.8.10+commit.fc410830"
  },
  "contractName": "JtnToken",
  "language": "Solidity",
  "natspec": {
    "kind": "dev",
    "methods": {},
    "version": 1
  },
  "opcodes": "PUSH1 0x80 PUSH1 0x40 MSTORE CALLVALUE DUP1 ISZERO PUSH2 0x10 JUMPI PUSH1 0x0 DUP1 REVERT JUMPDEST POP PUSH1 0x4 CALLDATASIZE LT PUSH2 0xF5 JUMPI PUSH1 0x0 CALLDATALOAD PUSH1 0xE0 SHR DUP1 PUSH4 0x52ECD4D1 GT PUSH2 0x97 JUMPI DUP1 PUSH4 0xC5A468C6 GT PUSH2 0x66 JUMPI DUP1 PUSH4 0xC5A468C6 EQ PUSH2 0x1EE JUMPI DUP1 PUSH4 0xDAC42E41 EQ PUSH2 0x217 JUMPI DUP1 PUSH4 0xDD62ED3E EQ PUSH2 0x250 JUMPI DUP1 PUSH4 0xDDEEEBD4 EQ PUSH2 0x289 JUMPI PUSH1 0x0 DUP1 REVERT JUMPDEST DUP1 PUSH4 0x52ECD4D1 EQ PUSH2 0x1A2 JUMPI DUP1 PUSH4 0x70A08231 EQ PUSH2 0x1B5 JUMPI DUP1 PUSH4 0xA79CF185 EQ PUSH2 0x1C8 JUMPI DUP1 PUSH4 0xA9059CBB EQ PUSH2 0x1DB JUMPI PUSH1 0x0 DUP1 REVERT JUMPDEST DUP1 PUSH4 0x106A2155 GT PUSH2 0xD3 JUMPI DUP1 PUSH4 0x106A2155 EQ PUSH2 0x16C JUMPI DUP1 PUSH4 0x18160DDD EQ PUSH2 0x17F JUMPI DUP1 PUSH4 0x23B872DD EQ PUSH2 0x187 JUMPI DUP1 PUSH4 0x51BFB961 EQ PUSH2 0x19A JUMPI PUSH1 0x0 DUP1 REVERT JUMPDEST DUP1 PUSH4 0x956E924 EQ PUSH2 0xFA JUMPI DUP1 PUSH4 0x95EA7B3 EQ PUSH2 0x122 JUMPI DUP1 PUSH4 0xB986A50 EQ PUSH2 0x135 JUMPI JUMPDEST PUSH1 0x0 DUP1 REVERT JUMPDEST PUSH2 0x10D PUSH2 0x108 CALLDATASIZE PUSH1 0x4 PUSH2 0xE9D JUMP JUMPDEST PUSH2 0x29C JUMP JUMPDEST PUSH1 0x40 MLOAD SWAP1 ISZERO ISZERO DUP2 MSTORE PUSH1 0x20 ADD JUMPDEST PUSH1 0x40 MLOAD DUP1 SWAP2 SUB SWAP1 RETURN JUMPDEST PUSH2 0x10D PUSH2 0x130 CALLDATASIZE PUSH1 0x4 PUSH2 0xF05 JUMP JUMPDEST PUSH2 0x3B6 JUMP JUMPDEST PUSH2 0x15E PUSH2 0x143 CALLDATASIZE PUSH1 0x4 PUSH2 0xF2F JUMP JUMPDEST PUSH1 0x1 PUSH1 0x1 PUSH1 0xA0 SHL SUB AND PUSH1 0x0 SWAP1 DUP2 MSTORE PUSH1 0x1 PUSH1 0x20 MSTORE PUSH1 0x40 SWAP1 KECCAK256 SLOAD SWAP1 JUMP JUMPDEST PUSH1 0x40 MLOAD SWAP1 DUP2 MSTORE PUSH1 0x20 ADD PUSH2 0x119 JUMP JUMPDEST PUSH2 0x10D PUSH2 0x17A CALLDATASIZE PUSH1 0x4 PUSH2 0xF4A JUMP JUMPDEST PUSH2 0x3CA JUMP JUMPDEST PUSH1 0x7 SLOAD PUSH2 0x15E JUMP JUMPDEST PUSH2 0x10D PUSH2 0x195 CALLDATASIZE PUSH1 0x4 PUSH2 0xFA1 JUMP JUMPDEST PUSH2 0x406 JUMP JUMPDEST PUSH1 0x6 SLOAD PUSH2 0x15E JUMP JUMPDEST PUSH2 0x10D PUSH2 0x1B0 CALLDATASIZE PUSH1 0x4 PUSH2 0xF05 JUMP JUMPDEST PUSH2 0x4EB JUMP JUMPDEST PUSH2 0x15E PUSH2 0x1C3 CALLDATASIZE PUSH1 0x4 PUSH2 0xF2F JUMP JUMPDEST PUSH2 0x4F8 JUMP JUMPDEST PUSH2 0x10D PUSH2 0x1D6 CALLDATASIZE PUSH1 0x4 PUSH2 0xFDD JUMP JUMPDEST PUSH2 0x52C JUMP JUMPDEST PUSH2 0x10D PUSH2 0x1E9 CALLDATASIZE PUSH1 0x4 PUSH2 0xF05 JUMP JUMPDEST PUSH2 0x537 JUMP JUMPDEST PUSH2 0x15E PUSH2 0x1FC CALLDATASIZE PUSH1 0x4 PUSH2 0xF2F JUMP JUMPDEST PUSH1 0x1 PUSH1 0x1 PUSH1 0xA0 SHL SUB AND PUSH1 0x0 SWAP1 DUP2 MSTORE PUSH1 0x5 PUSH1 0x20 MSTORE PUSH1 0x40 SWAP1 KECCAK256 SLOAD SWAP1 JUMP JUMPDEST PUSH2 0x15E PUSH2 0x225 CALLDATASIZE PUSH1 0x4 PUSH2 0x1012 JUMP JUMPDEST PUSH1 0x1 PUSH1 0x1 PUSH1 0xA0 SHL SUB SWAP2 DUP3 AND PUSH1 0x0 SWAP1 DUP2 MSTORE PUSH1 0x3 PUSH1 0x20 SWAP1 DUP2 MSTORE PUSH1 0x40 DUP1 DUP4 KECCAK256 SWAP4 SWAP1 SWAP5 AND DUP3 MSTORE SWAP2 SWAP1 SWAP2 MSTORE KECCAK256 SLOAD SWAP1 JUMP JUMPDEST PUSH2 0x15E PUSH2 0x25E CALLDATASIZE PUSH1 0x4 PUSH2 0x1012 JUMP JUMPDEST PUSH1 0x1 PUSH1 0x1 PUSH1 0xA0 SHL SUB SWAP2 DUP3 AND PUSH1 0x0 SWAP1 DUP2 MSTORE PUSH1 0x2 PUSH1 0x20 SWAP1 DUP2 MSTORE PUSH1 0x40 DUP1 DUP4 KECCAK256 SWAP4 SWAP1 SWAP5 AND DUP3 MSTORE SWAP2 SWAP1 SWAP2 MSTORE KECCAK256 SLOAD SWAP1 JUMP JUMPDEST PUSH2 0x10D PUSH2 0x297 CALLDATASIZE PUSH1 0x4 PUSH2 0xFDD JUMP JUMPDEST PUSH2 0x557 JUMP JUMPDEST PUSH1 0x0 PUSH1 0x1 PUSH1 0x1 PUSH1 0xA0 SHL SUB DUP5 AND PUSH2 0x2CD JUMPI PUSH1 0x40 MLOAD PUSH3 0x461BCD PUSH1 0xE5 SHL DUP2 MSTORE PUSH1 0x4 ADD PUSH2 0x2C4 SWAP1 PUSH2 0x1045 JUMP JUMPDEST PUSH1 0x40 MLOAD DUP1 SWAP2 SUB SWAP1 REVERT JUMPDEST PUSH1 0x1 PUSH1 0x1 PUSH1 0xA0 SHL SUB DUP6 AND PUSH2 0x332 JUMPI PUSH1 0x40 MLOAD PUSH3 0x461BCD PUSH1 0xE5 SHL DUP2 MSTORE PUSH1 0x20 PUSH1 0x4 DUP3 ADD MSTORE PUSH1 0x26 PUSH1 0x24 DUP3 ADD MSTORE PUSH32 0x50617965722061646472657373206D757374206E6F74206265207A65726F2061 PUSH1 0x44 DUP3 ADD MSTORE PUSH6 0x646472657373 PUSH1 0xD0 SHL PUSH1 0x64 DUP3 ADD MSTORE PUSH1 0x84 ADD PUSH2 0x2C4 JUMP JUMPDEST PUSH1 0x1 PUSH1 0x1 PUSH1 0xA0 SHL SUB DUP6 AND PUSH1 0x0 SWAP1 DUP2 MSTORE PUSH1 0x3 PUSH1 0x20 SWAP1 DUP2 MSTORE PUSH1 0x40 DUP1 DUP4 KECCAK256 CALLER DUP5 MSTORE SWAP1 SWAP2 MSTORE SWAP1 KECCAK256 SLOAD DUP4 GT ISZERO PUSH2 0x362 JUMPI PUSH1 0x0 DUP1 REVERT JUMPDEST PUSH2 0x36E DUP3 DUP7 DUP7 DUP7 PUSH2 0x57D JUMP JUMPDEST POP PUSH1 0x1 PUSH1 0x1 PUSH1 0xA0 SHL SUB DUP6 AND PUSH1 0x0 SWAP1 DUP2 MSTORE PUSH1 0x3 PUSH1 0x20 SWAP1 DUP2 MSTORE PUSH1 0x40 DUP1 DUP4 KECCAK256 CALLER DUP1 DUP6 MSTORE SWAP3 MSTORE SWAP1 SWAP2 KECCAK256 SLOAD PUSH2 0x3AA SWAP2 DUP8 SWAP2 PUSH2 0x3A5 SWAP1 DUP8 SWAP1 PUSH2 0x10A1 JUMP JUMPDEST PUSH2 0x7DA JUMP JUMPDEST POP PUSH1 0x1 SWAP6 SWAP5 POP POP POP POP POP JUMP JUMPDEST PUSH1 0x0 PUSH2 0x3C3 CALLER DUP5 DUP5 PUSH2 0x8EF JUMP JUMPDEST SWAP4 SWAP3 POP POP POP JUMP JUMPDEST PUSH1 0x0 PUSH1 0x1 PUSH1 0x1 PUSH1 0xA0 SHL SUB DUP5 AND PUSH2 0x3F2 JUMPI PUSH1 0x40 MLOAD PUSH3 0x461BCD PUSH1 0xE5 SHL DUP2 MSTORE PUSH1 0x4 ADD PUSH2 0x2C4 SWAP1 PUSH2 0x1045 JUMP JUMPDEST PUSH2 0x3FE DUP3 CALLER DUP7 DUP7 PUSH2 0x57D JUMP JUMPDEST SWAP5 SWAP4 POP POP POP POP JUMP JUMPDEST PUSH1 0x0 PUSH1 0x1 PUSH1 0x1 PUSH1 0xA0 SHL SUB DUP5 AND PUSH2 0x41B JUMPI PUSH1 0x0 DUP1 REVERT JUMPDEST PUSH1 0x1 PUSH1 0x1 PUSH1 0xA0 SHL SUB DUP4 AND PUSH2 0x42E JUMPI PUSH1 0x0 DUP1 REVERT JUMPDEST PUSH1 0x1 PUSH1 0x1 PUSH1 0xA0 SHL SUB DUP5 AND PUSH1 0x0 SWAP1 DUP2 MSTORE PUSH1 0x5 PUSH1 0x20 SWAP1 DUP2 MSTORE PUSH1 0x40 DUP1 DUP4 KECCAK256 SLOAD PUSH1 0x1 SWAP1 SWAP3 MSTORE SWAP1 SWAP2 KECCAK256 SLOAD PUSH2 0x45D SWAP2 SWAP1 PUSH2 0x10A1 JUMP JUMPDEST DUP3 GT ISZERO PUSH2 0x469 JUMPI PUSH1 0x0 DUP1 REVERT JUMPDEST PUSH1 0x1 PUSH1 0x1 PUSH1 0xA0 SHL SUB DUP5 AND PUSH1 0x0 SWAP1 DUP2 MSTORE PUSH1 0x2 PUSH1 0x20 SWAP1 DUP2 MSTORE PUSH1 0x40 DUP1 DUP4 KECCAK256 CALLER DUP5 MSTORE SWAP1 SWAP2 MSTORE SWAP1 KECCAK256 SLOAD DUP3 GT ISZERO PUSH2 0x499 JUMPI PUSH1 0x0 DUP1 REVERT JUMPDEST PUSH2 0x4A4 DUP5 DUP5 DUP5 PUSH2 0xA0D JUMP JUMPDEST POP PUSH1 0x1 PUSH1 0x1 PUSH1 0xA0 SHL SUB DUP5 AND PUSH1 0x0 SWAP1 DUP2 MSTORE PUSH1 0x2 PUSH1 0x20 SWAP1 DUP2 MSTORE PUSH1 0x40 DUP1 DUP4 KECCAK256 CALLER DUP1 DUP6 MSTORE SWAP3 MSTORE SWAP1 SWAP2 KECCAK256 SLOAD PUSH2 0x4E0 SWAP2 DUP7 SWAP2 PUSH2 0x4DB SWAP1 DUP7 SWAP1 PUSH2 0x10A1 JUMP JUMPDEST PUSH2 0x8EF JUMP JUMPDEST POP PUSH1 0x1 SWAP5 SWAP4 POP POP POP POP JUMP JUMPDEST PUSH1 0x0 PUSH2 0x3C3 CALLER DUP5 DUP5 PUSH2 0x7DA JUMP JUMPDEST PUSH1 0x1 PUSH1 0x1 PUSH1 0xA0 SHL SUB DUP2 AND PUSH1 0x0 SWAP1 DUP2 MSTORE PUSH1 0x5 PUSH1 0x20 SWAP1 DUP2 MSTORE PUSH1 0x40 DUP1 DUP4 KECCAK256 SLOAD PUSH1 0x1 SWAP1 SWAP3 MSTORE DUP3 KECCAK256 SLOAD PUSH2 0x526 SWAP2 SWAP1 PUSH2 0x10A1 JUMP JUMPDEST SWAP3 SWAP2 POP POP JUMP JUMPDEST PUSH1 0x0 PUSH2 0x526 DUP3 PUSH2 0xAEF JUMP JUMPDEST PUSH1 0x0 PUSH1 0x1 PUSH1 0x1 PUSH1 0xA0 SHL SUB DUP4 AND PUSH2 0x54C JUMPI PUSH1 0x0 DUP1 REVERT JUMPDEST PUSH2 0x3C3 CALLER DUP5 DUP5 PUSH2 0xA0D JUMP JUMPDEST PUSH1 0x0 DUP1 SLOAD PUSH1 0x1 PUSH1 0x1 PUSH1 0xA0 SHL SUB AND CALLER EQ PUSH2 0x56F JUMPI PUSH1 0x0 DUP1 REVERT JUMPDEST PUSH2 0x526 DUP3 PUSH2 0xCA7 JUMP JUMPDEST SWAP2 SWAP1 POP JUMP JUMPDEST PUSH1 0x0 DUP1 PUSH1 0x4 DUP7 PUSH1 0x40 MLOAD PUSH2 0x590 SWAP2 SWAP1 PUSH2 0x10E8 JUMP JUMPDEST SWAP1 DUP2 MSTORE PUSH1 0x20 ADD PUSH1 0x40 MLOAD DUP1 SWAP2 SUB SWAP1 KECCAK256 SWAP1 POP DUP3 PUSH1 0x0 EQ ISZERO PUSH2 0x5F1 JUMPI PUSH1 0x40 MLOAD PUSH3 0x461BCD PUSH1 0xE5 SHL DUP2 MSTORE PUSH1 0x20 PUSH1 0x4 DUP3 ADD MSTORE PUSH1 0x1F PUSH1 0x24 DUP3 ADD MSTORE PUSH32 0x56616C7565206D7573742062652067726561746572207468616E207A65726F00 PUSH1 0x44 DUP3 ADD MSTORE PUSH1 0x64 ADD PUSH2 0x2C4 JUMP JUMPDEST PUSH1 0x2 DUP2 ADD SLOAD ISZERO PUSH2 0x643 JUMPI PUSH1 0x40 MLOAD PUSH3 0x461BCD PUSH1 0xE5 SHL DUP2 MSTORE PUSH1 0x20 PUSH1 0x4 DUP3 ADD MSTORE PUSH1 0x1A PUSH1 0x24 DUP3 ADD MSTORE PUSH32 0x5468697320686F6C64496420616C726561647920657869737473000000000000 PUSH1 0x44 DUP3 ADD MSTORE PUSH1 0x64 ADD PUSH2 0x2C4 JUMP JUMPDEST PUSH1 0x1 PUSH1 0x1 PUSH1 0xA0 SHL SUB DUP6 AND PUSH1 0x0 SWAP1 DUP2 MSTORE PUSH1 0x5 PUSH1 0x20 SWAP1 DUP2 MSTORE PUSH1 0x40 DUP1 DUP4 KECCAK256 SLOAD PUSH1 0x1 SWAP1 SWAP3 MSTORE SWAP1 SWAP2 KECCAK256 SLOAD PUSH2 0x672 SWAP2 SWAP1 PUSH2 0x10A1 JUMP JUMPDEST DUP4 GT ISZERO PUSH2 0x6F2 JUMPI PUSH1 0x40 MLOAD PUSH3 0x461BCD PUSH1 0xE5 SHL DUP2 MSTORE PUSH1 0x20 PUSH1 0x4 DUP3 ADD MSTORE PUSH1 0x42 PUSH1 0x24 DUP3 ADD MSTORE PUSH32 0x416D6F756E74206F662074686520686F6C642063616E27742062652067726561 PUSH1 0x44 DUP3 ADD MSTORE PUSH32 0x746572207468616E207468652062616C616E6365206F6620746865206F726967 PUSH1 0x64 DUP3 ADD MSTORE PUSH2 0x34B7 PUSH1 0xF1 SHL PUSH1 0x84 DUP3 ADD MSTORE PUSH1 0xA4 ADD PUSH2 0x2C4 JUMP JUMPDEST DUP1 SLOAD PUSH1 0x1 PUSH1 0x1 PUSH1 0xA0 SHL SUB DUP7 DUP2 AND PUSH1 0x1 PUSH1 0x1 PUSH1 0xA0 SHL SUB NOT SWAP3 DUP4 AND DUP2 OR DUP5 SSTORE PUSH1 0x1 DUP1 DUP6 ADD DUP1 SLOAD SWAP4 DUP10 AND SWAP4 SWAP1 SWAP5 AND SWAP3 SWAP1 SWAP3 OR SWAP1 SWAP3 SSTORE PUSH1 0x2 DUP4 ADD DUP6 SWAP1 SSTORE PUSH1 0x3 DUP4 ADD DUP1 SLOAD PUSH1 0xFF NOT AND SWAP1 SWAP2 OR SWAP1 SSTORE PUSH1 0x0 SWAP1 DUP2 MSTORE PUSH1 0x5 PUSH1 0x20 MSTORE PUSH1 0x40 SWAP1 KECCAK256 SLOAD PUSH2 0x754 SWAP1 DUP5 SWAP1 PUSH2 0x111A JUMP JUMPDEST PUSH1 0x1 PUSH1 0x1 PUSH1 0xA0 SHL SUB DUP7 AND PUSH1 0x0 SWAP1 DUP2 MSTORE PUSH1 0x5 PUSH1 0x20 MSTORE PUSH1 0x40 SWAP1 KECCAK256 SSTORE PUSH1 0x6 SLOAD PUSH2 0x77B SWAP1 DUP5 SWAP1 PUSH2 0x111A JUMP JUMPDEST PUSH1 0x6 DUP2 SWAP1 SSTORE POP DUP4 PUSH1 0x1 PUSH1 0x1 PUSH1 0xA0 SHL SUB AND DUP6 PUSH1 0x1 PUSH1 0x1 PUSH1 0xA0 SHL SUB AND PUSH32 0x1447BAF11592332F1BB3FA66A7F7B71F69AC79B5C6ABA135338046195AAE48BB DUP9 DUP7 PUSH1 0x40 MLOAD PUSH2 0x7C6 SWAP3 SWAP2 SWAP1 PUSH2 0x1132 JUMP JUMPDEST PUSH1 0x40 MLOAD DUP1 SWAP2 SUB SWAP1 LOG3 POP PUSH1 0x1 SWAP6 SWAP5 POP POP POP POP POP JUMP JUMPDEST PUSH1 0x0 PUSH1 0x1 PUSH1 0x1 PUSH1 0xA0 SHL SUB DUP5 AND PUSH2 0x832 JUMPI PUSH1 0x40 MLOAD PUSH3 0x461BCD PUSH1 0xE5 SHL DUP2 MSTORE PUSH1 0x20 PUSH1 0x4 DUP3 ADD MSTORE PUSH1 0x1D PUSH1 0x24 DUP3 ADD MSTORE PUSH32 0x417070726F76652066726F6D20746865207A65726F2061646472657373000000 PUSH1 0x44 DUP3 ADD MSTORE PUSH1 0x64 ADD PUSH2 0x2C4 JUMP JUMPDEST PUSH1 0x1 PUSH1 0x1 PUSH1 0xA0 SHL SUB DUP4 AND PUSH2 0x888 JUMPI PUSH1 0x40 MLOAD PUSH3 0x461BCD PUSH1 0xE5 SHL DUP2 MSTORE PUSH1 0x20 PUSH1 0x4 DUP3 ADD MSTORE PUSH1 0x1B PUSH1 0x24 DUP3 ADD MSTORE PUSH32 0x417070726F766520746F20746865207A65726F20616464726573730000000000 PUSH1 0x44 DUP3 ADD MSTORE PUSH1 0x64 ADD PUSH2 0x2C4 JUMP JUMPDEST PUSH1 0x1 PUSH1 0x1 PUSH1 0xA0 SHL SUB DUP5 DUP2 AND PUSH1 0x0 DUP2 DUP2 MSTORE PUSH1 0x3 PUSH1 0x20 SWAP1 DUP2 MSTORE PUSH1 0x40 DUP1 DUP4 KECCAK256 SWAP5 DUP9 AND DUP1 DUP5 MSTORE SWAP5 DUP3 MSTORE SWAP2 DUP3 SWAP1 KECCAK256 DUP7 SWAP1 SSTORE SWAP1 MLOAD DUP6 DUP2 MSTORE PUSH32 0x2A4B7BD815DDB7C50A8F54EEB0CB4D5B463E07965D2464E99C948F971E2F311C SWAP2 ADD JUMPDEST PUSH1 0x40 MLOAD DUP1 SWAP2 SUB SWAP1 LOG3 POP PUSH1 0x1 SWAP4 SWAP3 POP POP POP JUMP JUMPDEST PUSH1 0x0 PUSH1 0x1 PUSH1 0x1 PUSH1 0xA0 SHL SUB DUP5 AND PUSH2 0x953 JUMPI PUSH1 0x40 MLOAD PUSH3 0x461BCD PUSH1 0xE5 SHL DUP2 MSTORE PUSH1 0x20 PUSH1 0x4 DUP3 ADD MSTORE PUSH1 0x24 DUP1 DUP3 ADD MSTORE PUSH32 0x45524332303A20617070726F76652066726F6D20746865207A65726F20616464 PUSH1 0x44 DUP3 ADD MSTORE PUSH4 0x72657373 PUSH1 0xE0 SHL PUSH1 0x64 DUP3 ADD MSTORE PUSH1 0x84 ADD PUSH2 0x2C4 JUMP JUMPDEST PUSH1 0x1 PUSH1 0x1 PUSH1 0xA0 SHL SUB DUP4 AND PUSH2 0x9B4 JUMPI PUSH1 0x40 MLOAD PUSH3 0x461BCD PUSH1 0xE5 SHL DUP2 MSTORE PUSH1 0x20 PUSH1 0x4 DUP3 ADD MSTORE PUSH1 0x22 PUSH1 0x24 DUP3 ADD MSTORE PUSH32 0x45524332303A20617070726F766520746F20746865207A65726F206164647265 PUSH1 0x44 DUP3 ADD MSTORE PUSH2 0x7373 PUSH1 0xF0 SHL PUSH1 0x64 DUP3 ADD MSTORE PUSH1 0x84 ADD PUSH2 0x2C4 JUMP JUMPDEST PUSH1 0x1 PUSH1 0x1 PUSH1 0xA0 SHL SUB DUP5 DUP2 AND PUSH1 0x0 DUP2 DUP2 MSTORE PUSH1 0x2 PUSH1 0x20 SWAP1 DUP2 MSTORE PUSH1 0x40 DUP1 DUP4 KECCAK256 SWAP5 DUP9 AND DUP1 DUP5 MSTORE SWAP5 DUP3 MSTORE SWAP2 DUP3 SWAP1 KECCAK256 DUP7 SWAP1 SSTORE SWAP1 MLOAD DUP6 DUP2 MSTORE PUSH32 0x8C5BE1E5EBEC7D5BD14F71427D1E84F3DD0314C0F7B2291E5B200AC8C7C3B925 SWAP2 ADD PUSH2 0x8DD JUMP JUMPDEST PUSH1 0x1 PUSH1 0x1 PUSH1 0xA0 SHL SUB DUP4 AND PUSH1 0x0 SWAP1 DUP2 MSTORE PUSH1 0x5 PUSH1 0x20 SWAP1 DUP2 MSTORE PUSH1 0x40 DUP1 DUP4 KECCAK256 SLOAD PUSH1 0x1 SWAP1 SWAP3 MSTORE DUP3 KECCAK256 SLOAD PUSH2 0xA3B SWAP2 SWAP1 PUSH2 0x10A1 JUMP JUMPDEST DUP3 GT ISZERO PUSH2 0xA47 JUMPI PUSH1 0x0 DUP1 REVERT JUMPDEST PUSH1 0x1 PUSH1 0x1 PUSH1 0xA0 SHL SUB DUP5 AND PUSH1 0x0 SWAP1 DUP2 MSTORE PUSH1 0x1 PUSH1 0x20 MSTORE PUSH1 0x40 SWAP1 KECCAK256 SLOAD PUSH2 0xA6B SWAP1 DUP4 SWAP1 PUSH2 0x10A1 JUMP JUMPDEST PUSH1 0x1 PUSH1 0x1 PUSH1 0xA0 SHL SUB DUP1 DUP7 AND PUSH1 0x0 SWAP1 DUP2 MSTORE PUSH1 0x1 PUSH1 0x20 MSTORE PUSH1 0x40 DUP1 DUP3 KECCAK256 SWAP4 SWAP1 SWAP4 SSTORE SWAP1 DUP6 AND DUP2 MSTORE KECCAK256 SLOAD PUSH2 0xA9B SWAP1 DUP4 SWAP1 PUSH2 0x111A JUMP JUMPDEST PUSH1 0x1 PUSH1 0x1 PUSH1 0xA0 SHL SUB DUP1 DUP6 AND PUSH1 0x0 DUP2 DUP2 MSTORE PUSH1 0x1 PUSH1 0x20 MSTORE PUSH1 0x40 SWAP1 DUP2 SWAP1 KECCAK256 SWAP4 SWAP1 SWAP4 SSTORE SWAP2 MLOAD SWAP1 DUP7 AND SWAP1 PUSH32 0xDDF252AD1BE2C89B69C2B068FC378DAA952BA7F163C4A11628F55A4DF523B3EF SWAP1 PUSH2 0x8DD SWAP1 DUP7 DUP2 MSTORE PUSH1 0x20 ADD SWAP1 JUMP JUMPDEST PUSH1 0x0 DUP1 PUSH1 0x4 DUP4 PUSH1 0x40 MLOAD PUSH2 0xB02 SWAP2 SWAP1 PUSH2 0x10E8 JUMP JUMPDEST SWAP1 DUP2 MSTORE PUSH1 0x40 MLOAD SWAP1 DUP2 SWAP1 SUB PUSH1 0x20 ADD SWAP1 KECCAK256 SWAP1 POP PUSH1 0x1 PUSH1 0x3 DUP1 DUP4 ADD SLOAD PUSH1 0xFF AND SWAP1 DUP2 GT ISZERO PUSH2 0xB2E JUMPI PUSH2 0xB2E PUSH2 0x1104 JUMP JUMPDEST EQ PUSH2 0xB4B JUMPI PUSH1 0x40 MLOAD PUSH3 0x461BCD PUSH1 0xE5 SHL DUP2 MSTORE PUSH1 0x4 ADD PUSH2 0x2C4 SWAP1 PUSH2 0x116D JUMP JUMPDEST DUP1 SLOAD PUSH1 0x1 PUSH1 0x1 PUSH1 0xA0 SHL SUB AND CALLER EQ PUSH2 0xBBD JUMPI PUSH1 0x40 MLOAD PUSH3 0x461BCD PUSH1 0xE5 SHL DUP2 MSTORE PUSH1 0x20 PUSH1 0x4 DUP3 ADD MSTORE PUSH1 0x30 PUSH1 0x24 DUP3 ADD MSTORE PUSH32 0x4F6E6C792074686520686F6C642063726561746F722068617320616C6C6F7720 PUSH1 0x44 DUP3 ADD MSTORE PUSH16 0x195E1958DD5D19481D1A19481A1BDB19 PUSH1 0x82 SHL PUSH1 0x64 DUP3 ADD MSTORE PUSH1 0x84 ADD PUSH2 0x2C4 JUMP JUMPDEST DUP1 PUSH1 0x2 ADD SLOAD PUSH1 0x6 SLOAD PUSH2 0xBCF SWAP2 SWAP1 PUSH2 0x10A1 JUMP JUMPDEST PUSH1 0x6 SSTORE PUSH1 0x2 DUP2 ADD SLOAD DUP2 SLOAD PUSH1 0x1 PUSH1 0x1 PUSH1 0xA0 SHL SUB AND PUSH1 0x0 SWAP1 DUP2 MSTORE PUSH1 0x5 PUSH1 0x20 MSTORE PUSH1 0x40 SWAP1 KECCAK256 SLOAD PUSH2 0xBFB SWAP2 SWAP1 PUSH2 0x10A1 JUMP JUMPDEST DUP2 SLOAD PUSH1 0x1 PUSH1 0x1 PUSH1 0xA0 SHL SUB AND PUSH1 0x0 SWAP1 DUP2 MSTORE PUSH1 0x5 PUSH1 0x20 MSTORE PUSH1 0x40 SWAP1 KECCAK256 SSTORE PUSH1 0x3 DUP2 ADD DUP1 SLOAD PUSH1 0x2 SWAP2 SWAP1 PUSH1 0xFF NOT AND PUSH1 0x1 DUP4 MUL OR SWAP1 SSTORE POP PUSH1 0x1 DUP2 ADD SLOAD DUP2 SLOAD PUSH1 0x2 DUP4 ADD SLOAD PUSH1 0x40 MLOAD PUSH1 0x1 PUSH1 0x1 PUSH1 0xA0 SHL SUB SWAP4 DUP5 AND SWAP4 SWAP1 SWAP3 AND SWAP2 PUSH32 0xBF421E49F7CEE5241EDC374D8A9FEFED49977EC6C23509017C5BAEA963CFF18B SWAP2 PUSH2 0xC78 SWAP2 DUP9 SWAP2 SWAP1 PUSH2 0x1132 JUMP JUMPDEST PUSH1 0x40 MLOAD DUP1 SWAP2 SUB SWAP1 LOG3 PUSH1 0x1 DUP2 ADD SLOAD PUSH1 0x2 DUP3 ADD SLOAD PUSH2 0xC9D SWAP2 PUSH1 0x1 PUSH1 0x1 PUSH1 0xA0 SHL SUB AND SWAP1 PUSH2 0x537 JUMP JUMPDEST POP PUSH1 0x1 SWAP4 SWAP3 POP POP POP JUMP JUMPDEST PUSH1 0x0 DUP1 SLOAD PUSH1 0x1 PUSH1 0x1 PUSH1 0xA0 SHL SUB AND CALLER EQ PUSH2 0xCBF JUMPI PUSH1 0x0 DUP1 REVERT JUMPDEST PUSH1 0x0 PUSH1 0x4 DUP4 PUSH1 0x40 MLOAD PUSH2 0xCD1 SWAP2 SWAP1 PUSH2 0x10E8 JUMP JUMPDEST SWAP1 DUP2 MSTORE PUSH1 0x40 MLOAD SWAP1 DUP2 SWAP1 SUB PUSH1 0x20 ADD SWAP1 KECCAK256 SWAP1 POP PUSH1 0x1 PUSH1 0x3 DUP1 DUP4 ADD SLOAD PUSH1 0xFF AND SWAP1 DUP2 GT ISZERO PUSH2 0xCFD JUMPI PUSH2 0xCFD PUSH2 0x1104 JUMP JUMPDEST EQ PUSH2 0xD1A JUMPI PUSH1 0x40 MLOAD PUSH3 0x461BCD PUSH1 0xE5 SHL DUP2 MSTORE PUSH1 0x4 ADD PUSH2 0x2C4 SWAP1 PUSH2 0x116D JUMP JUMPDEST DUP1 PUSH1 0x2 ADD SLOAD PUSH1 0x6 SLOAD PUSH2 0xD2C SWAP2 SWAP1 PUSH2 0x10A1 JUMP JUMPDEST PUSH1 0x6 SSTORE PUSH1 0x2 DUP2 ADD SLOAD DUP2 SLOAD PUSH1 0x1 PUSH1 0x1 PUSH1 0xA0 SHL SUB AND PUSH1 0x0 SWAP1 DUP2 MSTORE PUSH1 0x5 PUSH1 0x20 MSTORE PUSH1 0x40 SWAP1 KECCAK256 SLOAD PUSH2 0xD58 SWAP2 SWAP1 PUSH2 0x10A1 JUMP JUMPDEST DUP2 SLOAD PUSH1 0x1 PUSH1 0x1 PUSH1 0xA0 SHL SUB AND PUSH1 0x0 SWAP1 DUP2 MSTORE PUSH1 0x5 PUSH1 0x20 MSTORE PUSH1 0x40 SWAP1 KECCAK256 SSTORE PUSH1 0x3 DUP1 DUP3 ADD DUP1 SLOAD PUSH1 0xFF NOT AND PUSH1 0x1 DUP4 MUL OR SWAP1 SSTORE POP PUSH1 0x1 DUP2 ADD SLOAD DUP2 SLOAD PUSH1 0x2 DUP4 ADD SLOAD PUSH1 0x40 MLOAD PUSH1 0x1 PUSH1 0x1 PUSH1 0xA0 SHL SUB SWAP4 DUP5 AND SWAP4 SWAP1 SWAP3 AND SWAP2 PUSH32 0x915518F9CCBEA82173E8E65B955AE12C0D9619DFAB08E23D17D2963ECAD7F4E4 SWAP2 PUSH2 0xDD2 SWAP2 DUP9 SWAP2 SWAP1 PUSH2 0x1132 JUMP JUMPDEST PUSH1 0x40 MLOAD DUP1 SWAP2 SUB SWAP1 LOG3 POP PUSH1 0x1 SWAP3 SWAP2 POP POP JUMP JUMPDEST DUP1 CALLDATALOAD PUSH1 0x1 PUSH1 0x1 PUSH1 0xA0 SHL SUB DUP2 AND DUP2 EQ PUSH2 0x578 JUMPI PUSH1 0x0 DUP1 REVERT JUMPDEST PUSH4 0x4E487B71 PUSH1 0xE0 SHL PUSH1 0x0 MSTORE PUSH1 0x41 PUSH1 0x4 MSTORE PUSH1 0x24 PUSH1 0x0 REVERT JUMPDEST PUSH1 0x0 DUP3 PUSH1 0x1F DUP4 ADD SLT PUSH2 0xE21 JUMPI PUSH1 0x0 DUP1 REVERT JUMPDEST DUP2 CALLDATALOAD PUSH8 0xFFFFFFFFFFFFFFFF DUP1 DUP3 GT ISZERO PUSH2 0xE3C JUMPI PUSH2 0xE3C PUSH2 0xDFA JUMP JUMPDEST PUSH1 0x40 MLOAD PUSH1 0x1F DUP4 ADD PUSH1 0x1F NOT SWAP1 DUP2 AND PUSH1 0x3F ADD AND DUP2 ADD SWAP1 DUP3 DUP3 GT DUP2 DUP4 LT OR ISZERO PUSH2 0xE64 JUMPI PUSH2 0xE64 PUSH2 0xDFA JUMP JUMPDEST DUP2 PUSH1 0x40 MSTORE DUP4 DUP2 MSTORE DUP7 PUSH1 0x20 DUP6 DUP9 ADD ADD GT ISZERO PUSH2 0xE7D JUMPI PUSH1 0x0 DUP1 REVERT JUMPDEST DUP4 PUSH1 0x20 DUP8 ADD PUSH1 0x20 DUP4 ADD CALLDATACOPY PUSH1 0x0 PUSH1 0x20 DUP6 DUP4 ADD ADD MSTORE DUP1 SWAP5 POP POP POP POP POP SWAP3 SWAP2 POP POP JUMP JUMPDEST PUSH1 0x0 DUP1 PUSH1 0x0 DUP1 PUSH1 0x80 DUP6 DUP8 SUB SLT ISZERO PUSH2 0xEB3 JUMPI PUSH1 0x0 DUP1 REVERT JUMPDEST PUSH2 0xEBC DUP6 PUSH2 0xDE3 JUMP JUMPDEST SWAP4 POP PUSH2 0xECA PUSH1 0x20 DUP7 ADD PUSH2 0xDE3 JUMP JUMPDEST SWAP3 POP PUSH1 0x40 DUP6 ADD CALLDATALOAD SWAP2 POP PUSH1 0x60 DUP6 ADD CALLDATALOAD PUSH8 0xFFFFFFFFFFFFFFFF DUP2 GT ISZERO PUSH2 0xEED JUMPI PUSH1 0x0 DUP1 REVERT JUMPDEST PUSH2 0xEF9 DUP8 DUP3 DUP9 ADD PUSH2 0xE10 JUMP JUMPDEST SWAP2 POP POP SWAP3 SWAP6 SWAP2 SWAP5 POP SWAP3 POP JUMP JUMPDEST PUSH1 0x0 DUP1 PUSH1 0x40 DUP4 DUP6 SUB SLT ISZERO PUSH2 0xF18 JUMPI PUSH1 0x0 DUP1 REVERT JUMPDEST PUSH2 0xF21 DUP4 PUSH2 0xDE3 JUMP JUMPDEST SWAP5 PUSH1 0x20 SWAP4 SWAP1 SWAP4 ADD CALLDATALOAD SWAP4 POP POP POP JUMP JUMPDEST PUSH1 0x0 PUSH1 0x20 DUP3 DUP5 SUB SLT ISZERO PUSH2 0xF41 JUMPI PUSH1 0x0 DUP1 REVERT JUMPDEST PUSH2 0x3C3 DUP3 PUSH2 0xDE3 JUMP JUMPDEST PUSH1 0x0 DUP1 PUSH1 0x0 PUSH1 0x60 DUP5 DUP7 SUB SLT ISZERO PUSH2 0xF5F JUMPI PUSH1 0x0 DUP1 REVERT JUMPDEST PUSH2 0xF68 DUP5 PUSH2 0xDE3 JUMP JUMPDEST SWAP3 POP PUSH1 0x20 DUP5 ADD CALLDATALOAD SWAP2 POP PUSH1 0x40 DUP5 ADD CALLDATALOAD PUSH8 0xFFFFFFFFFFFFFFFF DUP2 GT ISZERO PUSH2 0xF8B JUMPI PUSH1 0x0 DUP1 REVERT JUMPDEST PUSH2 0xF97 DUP7 DUP3 DUP8 ADD PUSH2 0xE10 JUMP JUMPDEST SWAP2 POP POP SWAP3 POP SWAP3 POP SWAP3 JUMP JUMPDEST PUSH1 0x0 DUP1 PUSH1 0x0 PUSH1 0x60 DUP5 DUP7 SUB SLT ISZERO PUSH2 0xFB6 JUMPI PUSH1 0x0 DUP1 REVERT JUMPDEST PUSH2 0xFBF DUP5 PUSH2 0xDE3 JUMP JUMPDEST SWAP3 POP PUSH2 0xFCD PUSH1 0x20 DUP6 ADD PUSH2 0xDE3 JUMP JUMPDEST SWAP2 POP PUSH1 0x40 DUP5 ADD CALLDATALOAD SWAP1 POP SWAP3 POP SWAP3 POP SWAP3 JUMP JUMPDEST PUSH1 0x0 PUSH1 0x20 DUP3 DUP5 SUB SLT ISZERO PUSH2 0xFEF JUMPI PUSH1 0x0 DUP1 REVERT JUMPDEST DUP2 CALLDATALOAD PUSH8 0xFFFFFFFFFFFFFFFF DUP2 GT ISZERO PUSH2 0x1006 JUMPI PUSH1 0x0 DUP1 REVERT JUMPDEST PUSH2 0x3FE DUP5 DUP3 DUP6 ADD PUSH2 0xE10 JUMP JUMPDEST PUSH1 0x0 DUP1 PUSH1 0x40 DUP4 DUP6 SUB SLT ISZERO PUSH2 0x1025 JUMPI PUSH1 0x0 DUP1 REVERT JUMPDEST PUSH2 0x102E DUP4 PUSH2 0xDE3 JUMP JUMPDEST SWAP2 POP PUSH2 0x103C PUSH1 0x20 DUP5 ADD PUSH2 0xDE3 JUMP JUMPDEST SWAP1 POP SWAP3 POP SWAP3 SWAP1 POP JUMP JUMPDEST PUSH1 0x20 DUP1 DUP3 MSTORE PUSH1 0x26 SWAP1 DUP3 ADD MSTORE PUSH32 0x50617965652061646472657373206D757374206E6F74206265207A65726F2061 PUSH1 0x40 DUP3 ADD MSTORE PUSH6 0x646472657373 PUSH1 0xD0 SHL PUSH1 0x60 DUP3 ADD MSTORE PUSH1 0x80 ADD SWAP1 JUMP JUMPDEST PUSH4 0x4E487B71 PUSH1 0xE0 SHL PUSH1 0x0 MSTORE PUSH1 0x11 PUSH1 0x4 MSTORE PUSH1 0x24 PUSH1 0x0 REVERT JUMPDEST PUSH1 0x0 DUP3 DUP3 LT ISZERO PUSH2 0x10B3 JUMPI PUSH2 0x10B3 PUSH2 0x108B JUMP JUMPDEST POP SUB SWAP1 JUMP JUMPDEST PUSH1 0x0 JUMPDEST DUP4 DUP2 LT ISZERO PUSH2 0x10D3 JUMPI DUP2 DUP2 ADD MLOAD DUP4 DUP3 ADD MSTORE PUSH1 0x20 ADD PUSH2 0x10BB JUMP JUMPDEST DUP4 DUP2 GT ISZERO PUSH2 0x10E2 JUMPI PUSH1 0x0 DUP5 DUP5 ADD MSTORE JUMPDEST POP POP POP POP JUMP JUMPDEST PUSH1 0x0 DUP3 MLOAD PUSH2 0x10FA DUP2 DUP5 PUSH1 0x20 DUP8 ADD PUSH2 0x10B8 JUMP JUMPDEST SWAP2 SWAP1 SWAP2 ADD SWAP3 SWAP2 POP POP JUMP JUMPDEST PUSH4 0x4E487B71 PUSH1 0xE0 SHL PUSH1 0x0 MSTORE PUSH1 0x21 PUSH1 0x4 MSTORE PUSH1 0x24 PUSH1 0x0 REVERT JUMPDEST PUSH1 0x0 DUP3 NOT DUP3 GT ISZERO PUSH2 0x112D JUMPI PUSH2 0x112D PUSH2 0x108B JUMP JUMPDEST POP ADD SWAP1 JUMP JUMPDEST PUSH1 0x40 DUP2 MSTORE PUSH1 0x0 DUP4 MLOAD DUP1 PUSH1 0x40 DUP5 ADD MSTORE PUSH2 0x1151 DUP2 PUSH1 0x60 DUP6 ADD PUSH1 0x20 DUP9 ADD PUSH2 0x10B8 JUMP JUMPDEST PUSH1 0x20 DUP4 ADD SWAP4 SWAP1 SWAP4 MSTORE POP PUSH1 0x1F SWAP2 SWAP1 SWAP2 ADD PUSH1 0x1F NOT AND ADD PUSH1 0x60 ADD SWAP2 SWAP1 POP JUMP JUMPDEST PUSH1 0x20 DUP1 DUP3 MSTORE PUSH1 0x2D SWAP1 DUP3 ADD MSTORE PUSH32 0x4120686F6C642063616E206F6E6C7920626520657865637574656420696E2073 PUSH1 0x40 DUP3 ADD MSTORE PUSH13 0x1D185D1D5CC813DC99195C9959 PUSH1 0x9A SHL PUSH1 0x60 DUP3 ADD MSTORE PUSH1 0x80 ADD SWAP1 JUMP INVALID LOG2 PUSH5 0x6970667358 0x22 SLT KECCAK256 0x2F 0xFB 0xEC 0x2C 0xA6 PUSH20 0x18E6918EE81E9F9785A61A5C3BF8B65DD313DC60 DUP12 LOG4 PUSH23 0xDB9D3764736F6C634300080A0033000000000000000000 ",
  "sha1": "acfe69607ae6cc9bad3dc6a83535a269b2b7489b",
  "source": "// SPDX-License-Identifier: MIT\npragma solidity ^0.8.0;\n\nimport \"@openzeppelin/contracts/token/ERC20/IERC20.sol\";\n\ncontract JtnToken {\n\n    enum HoldStatusCode {\n        Nonexistent,\n        Ordered,\n        Executed,\n        Removed\n    }\n\n    struct Hold {\n        address origin;\n        address target;\n        uint256 amount;\n        HoldStatusCode status;\n    }\n\n    address private _owner;\n    mapping(address => uint256) private _balances;\n    mapping(address => mapping(address => uint256)) private _allowances;\n    mapping(address => mapping(address => uint256)) private _holdAllowances;\n    mapping(string => Hold) private _holds;\n    mapping(address => uint256) private _heldBalance;\n    uint256 private _totalHeldBalance;\n    uint256 private _totalSupply;\n\n    event Transfer(address indexed from, address indexed to, uint256 value);\n    event Approval(address indexed owner, address indexed spender, uint256 value);\n    event HoldCreated(string holdId, address indexed from, address indexed to, uint256 value);\n    event HoldExecuted(string holdId, address indexed from, address indexed to, uint256 value);\n    event HoldRemoved(string holdId, address indexed from, address indexed to, uint256 value);\n    event HoldApproval(address indexed owner, address indexed spender, uint256 value);\n\n\n    constructor() public {\n        _totalSupply = 10000000000000000;\n        _owner = msg.sender;\n        _balances[_owner] = _totalSupply;\n    }\n\n    modifier onlyOwner() {\n        require(msg.sender == _owner);\n        _;\n    }\n\n    function totalSupply() public view returns (uint256) {\n        return _totalSupply;\n    }\n\n    function totalSupplyOnHold() public view returns (uint256) {\n        return _totalHeldBalance;\n    }\n\n    function balanceOnHold(address account) public view returns (uint256) {\n        return _heldBalance[account];\n    }\n\n    function balanceOf(address account) public view returns (uint256) {\n        return _balances[account] - _heldBalance[account];\n    }\n\n    function netBalanceOf(address account) public view returns (uint256) {\n        return _balances[account];\n    }\n\n    function transfer(address recipient, uint256 amount) public returns (bool) {\n\n        require(recipient != address(0));\n        return _transfer(msg.sender, recipient, amount);\n    }\n\n    function transferFrom(address sender, address recipient, uint256 amount) public returns (bool) {\n\n        require(sender != address(0));\n        require(recipient != address(0));\n        require(amount <= _balances[sender] - _heldBalance[sender]);\n        require(amount <= _allowances[sender][msg.sender]);\n        _transfer(sender, recipient, amount);\n        _approve(sender, msg.sender, _allowances[sender][msg.sender] - amount);\n        return true;\n    }\n\n    function allowance(address owner, address spender) public view returns (uint256) {\n        return _allowances[owner][spender];\n    }\n\n    function approve(address spender, uint256 amount) public returns (bool) {\n        return _approve(msg.sender, spender, amount);\n    }\n\n    function hold(address to, uint256 amount, string memory holdId) public returns (bool)\n    {\n        require(to != address(0), \"Payee address must not be zero address\");\n        return _hold(holdId, msg.sender, to, amount);\n    }\n\n    function holdFrom(address from, address to, uint256 amount, string memory holdId) public returns (bool)\n    {\n        require(to != address(0), \"Payee address must not be zero address\");\n        require(from != address(0), \"Payer address must not be zero address\");\n        require(amount <= _holdAllowances[from][msg.sender]);\n        _hold(holdId, from, to, amount);\n        _holdApprove(from, msg.sender, _holdAllowances[from][msg.sender] - amount);\n        return true;\n    }\n\n     function holdAllowance(address owner, address spender) public view returns (uint256) {\n        return _holdAllowances[owner][spender];\n    }\n\n    function holdApprove(address spender, uint256 amount) public returns (bool) {\n        return _holdApprove(msg.sender, spender, amount);\n    }\n\n    function executeHold(string memory holdId) public returns (bool) {\n        return _executeHold(holdId);\n    }\n\n    function removeHold(string memory holdId) public onlyOwner returns (bool) {\n        return _removeHold(holdId);\n    }\n\n    function _transfer(address sender, address recipient, uint256 amount) private returns (bool) {\n        require(amount <= _balances[sender] - _heldBalance[sender]);\n        _balances[sender] = _balances[sender] - amount;\n        _balances[recipient] = _balances[recipient] + amount;\n        emit Transfer(sender, recipient, amount);\n        return true;\n    }\n\n    function _approve(address owner, address spender, uint256 amount) private returns (bool) {\n        require(owner != address(0), \"ERC20: approve from the zero address\");\n        require(spender != address(0), \"ERC20: approve to the zero address\");\n        _allowances[owner][spender] = amount;\n        emit Approval(owner, spender, amount);\n        return true;\n    }\n\n    function _hold(string memory holdId, address from, address to, uint256 amount) private returns (bool)\n    {\n        Hold storage newHold = _holds[holdId];\n\n        require(amount != 0, \"Value must be greater than zero\");\n        require(newHold.amount == 0, \"This holdId already exists\");\n        require(amount <= _balances[from] - _heldBalance[from], \"Amount of the hold can't be greater than the balance of the origin\");\n\n        newHold.origin = from;\n        newHold.target = to;\n        newHold.amount = amount;\n        newHold.status = HoldStatusCode.Ordered;\n\n        _heldBalance[from] = _heldBalance[from] + amount;\n        _totalHeldBalance = _totalHeldBalance + amount;\n\n        emit HoldCreated(holdId, from, to, amount);\n\n        return true;\n    }\n\n    function _executeHold(string memory holdId) private returns (bool) {\n\n        Hold storage executableHold = _holds[holdId];\n        require(executableHold.status == HoldStatusCode.Ordered, \"A hold can only be executed in status Ordered\");\n        require(executableHold.origin == msg.sender, \"Only the hold creator has allow execute the hold\");\n        //Check\n        _totalHeldBalance = _totalHeldBalance - executableHold.amount;\n        _heldBalance[executableHold.origin] = _heldBalance[executableHold.origin] - executableHold.amount;\n        executableHold.status = HoldStatusCode.Executed;\n        emit HoldExecuted(holdId, executableHold.origin, executableHold.target, executableHold.amount);\n        transfer(executableHold.target, executableHold.amount);\n\n        return true;\n    }\n\n    function _removeHold(string memory holdId) private onlyOwner returns (bool) {\n\n        Hold storage removedHold = _holds[holdId];\n        require(removedHold.status == HoldStatusCode.Ordered, \"A hold can only be executed in status Ordered\");\n        _totalHeldBalance = _totalHeldBalance - removedHold.amount;\n        _heldBalance[removedHold.origin] = _heldBalance[removedHold.origin] - removedHold.amount;\n        removedHold.status = HoldStatusCode.Removed;\n        emit HoldRemoved(holdId, removedHold.origin, removedHold.target, removedHold.amount);\n        return true;\n    }\n\n    function _holdApprove(address owner, address spender, uint256 amount) private returns (bool) {\n        require(owner != address(0), \"Approve from the zero address\");\n        require(spender != address(0), \"Approve to the zero address\");\n        _holdAllowances[owner][spender] = amount;\n        emit HoldApproval(owner, spender, amount);\n        return true;\n    }\n}",
  "sourcePath": "contracts/JtnToken.sol",
  "type": "contract"
}